:1000000000200010430000004100000041000000FB
:1000100041000000410000004100000041000000DC
:1000200041000000410000004100000041000000CC
:1000300041000000410000004100000041000000BC
:10004000FEE70B480B490C4A091A05D013780370D8
:10005000013201300139F9DC08480949091A04D094
:100060005B40037001300139FBDC00F0DBFCFEE794
:10007000000000102C000010400A000030000010AA
:1000800030000010700A000000207047704710F028
:10009000800F4FEA400018BF80F01B00C0B27047CD
:1000A00002460723002010B5FFF7F1FF41FA03F4E1
:1000B000E40744BF5040C0B213F1FF33F4D210BD87
:1000C00070B50146FFF7ECFF0646FFF7E9FF314642
:1000D00005463046FFF7E4FF014604462846FFF791
:1000E000DFFF05462046FFF7DBFF01462846FFF706
:1000F000D7FF0146FFF7D4FF0146FFF7D1FF0446C3
:1001000001462846FFF7CCFF01462046FFF7C8FF0F
:10011000BDE870400146FFF7C3BF08B5FFF7D0FF49
:1001200080F0630383EAD01383EA901383EA5013C9
:1001300083EA101383EA400383EA800383EAC0035F
:1001400083EA0010C0B208BD2DE9F84F0446477B92
:100150000D463846FFF7E1FF2178A67B4D4045402C
:100160005FFA85F984F800903046FFF7D6FF627891
:10017000E57B42405FFA82FB84F801B02846FFF736
:10018000CCFFA37894F80C8043405FFA83FA404692
:1001900084F802A0FFF7C1FF94F803C0217980EA38
:1001A0000C0094F807C0C0B2E07080EA0C0094F82C
:1001B00008C0627989EA0101217181EA0C0194F891
:1001C00009C0A3798BEA0202627182EA0C0294F8F8
:1001D0000AC08AEA0303A37183EA0C0394F80BC0F4
:1001E000E07180EA0C006272A372E07288EA010892
:1001F0007A4073406840217284F80C806273A37364
:10020000E073BDE8F88F0A780378534003704A78AA
:100210004378534043708A78837853408370CA7818
:10022000C3785340C3700A790379534003714A7904
:100230004379534043718A79837953408371CA79F2
:10024000C3795340C3710A7A037A534003724A7ADE
:10025000437A534043728A7A837A53408372CA7ACC
:10026000C37A5340C3720A7B037B534003734A7BB8
:10027000437B534043738A7B837B53408373CA7BA6
:10028000C37B5340C373704710B504460078FFF733
:1002900044FF20706078FFF740FF6070A078FFF7A0
:1002A0003CFFA070E078FFF738FFE0702079FFF79F
:1002B00034FF20716079FFF730FF6071A079FFF79C
:1002C0002CFFA071E079FFF728FFE071207AFFF79B
:1002D00024FF2072607AFFF720FF6072A07AFFF798
:1002E0001CFFA072E07AFFF718FFE072207BFFF797
:1002F00014FF2073607BFFF710FF6073A07BFFF794
:100300000CFFA073E07BFFF708FFE07310BD41799D
:10031000427A437B10B5447842714473827A847880
:10032000417043728179837B84728173C478C1790F
:1003300082708371C27AC37BC471C172C273C3708D
:1003400010BD2DE9F0410178034642788478C678E3
:100350000846FFF79CFE80461046FFF798FE0746CA
:100360002046FFF794FE05463046FFF790FE81EAEF
:10037000020C624072406140714088EA020286EAE3
:100380000C0684EA0C047A404F406F40197988EAE1
:1003900004047540454060401A705F709D70D870CD
:1003A00008469C79DE795A79FFF771FE804610463F
:1003B000FFF76DFE07462046FFF769FE054630460B
:1003C000FFF765FE81EA020C6240724061407140B5
:1003D00088EA020286EA0C0684EA0C047A404F405E
:1003E0006F40197A88EA04047540454060401A71EC
:1003F0005F719D71D87108469C7ADE7A5A7AFFF750
:1004000046FE80461046FFF742FE07462046FFF7AD
:100410003EFE05463046FFF73AFE81EA020C624096
:1004200072406140714088EA020286EA0C0684EA62
:100430000C047A404F406F40197B88EA04047540F1
:10044000454060401A725F729D72D87208469C7B6C
:10045000DE7B5A7BFFF71BFE80461046FFF717FE38
:1004600007462046FFF713FE05463046FFF70FFE0E
:1004700081EA020C624072406140714088EA0202E7
:100480007A4086EA0C064F4084EA0C046F4088EA02
:1004900004047540454060401A735F739D73D873C0
:1004A000BDE8F0817047F0B503460446154685B0B7
:1004B00001F1100251F8040B914243F8040BF9D1F9
:1004C000174A01AB10685168128903C329462046B8
:1004D0001A800026FFF797FE01AF2046FFF7D4FEF3
:1004E0002046FFF714FFFFF72CFFB95D2846FFF702
:1004F0002BFE013629462046FFF785FE092EECD15A
:10050000FFF7C2FE2046FFF702FF3621FFF71CFE71
:100510002946204605B0BDE8F040FFF774BE00BF95
:100520002E0A0000012307B58DF8043010238DF842
:1005300005308DF80630002301A88DF8073000F053
:1005400007F880F00100C0B2404203B05DF804FB40
:100550002DE9F74F012110279D4C066823689D4D1A
:10056000D3F880205FFA86F842F48032C3F8802006
:10057000994A884512682E609167D167176140F2E9
:100580000127C2F8A410C2F8A81017635763D3F864
:100590008020AC4642F02002C3F88020D3F88020AF
:1005A000009442F04002C3F88020D3F8802042F447
:1005B0008052C3F880205A6822F002025A605A68BA
:1005C00042F002025A6005D026D3B8F1020F05D0DE
:1005D0000020DBE041464FF0030A00E08A464FF07E
:1005E0000009C6F307220192C6F307460125DDF88C
:1005F00004E009F1010707FB0EF4B4FBF5FB05FB72
:100600001B420AB95E4509D00135B5F5807FF4D1AA
:10061000202FB946EAD1DBE70021DCE766009C3EEB
:10062000A42E0FD9A6009C3EA42E40F2B280E60074
:100630009C3EA42E40F2AF8024019C3CA42C00F2EE
:10064000C58003220EF1FF34132C49EA421200F256
:10065000A48000241C62D3F83842B8F1000F40F0A7
:10066000A48044F02004C3F83842C82300BF013BF3
:10067000FCD1009B1B681964596C41F0010159645D
:10068000596C21F001015964596C41F00101596420
:10069000596CCC07FCD59A60D3F8382222F080023E
:1006A000C3F83822DA68D107FCD5C3F870A05A6FB6
:1006B00042F001025A675A6F22F001025A675A6FDC
:1006C00042F001025A675A6FD207FCD59CF802200B
:1006D0009D67142A6CD80024404909680C61404980
:1006E00002EB8202096801F50044256845F0010526
:1006F0002560256845F0020525603A4C246804F51C
:100700000044256825F00205256043F6FC740D5968
:1007100025F001050D510D5925F002050D51052556
:100720009CF8011004244F43C3F898702E4B1B68AB
:10073000D96841F08001D9609D62996A41F08001D9
:100740009962002159601C60D96821F08001D9604C
:10075000D96841F00301D960D96821F00801D96056
:10076000D96821F00401D960204B1B685A611A61D5
:1007700040221A606FF07F421D4B1B685A619A61DC
:10078000C2780AB31D6100F049F9012003B0BDE849
:10079000F08F012256E7022254E7AEF10F0EBEF1B0
:1007A0000A0F3FF658AF022454E724F020045AE71A
:1007B000282A03D80949012409688FE7322A8ED8EC
:1007C00006490224096889E71C61DCE71046DDE779
:1007D0000400001030000010080000102400001079
:1007E000100000100C0000101C0000102000001071
:1007F00028000010054B9B785843032390FBF3F02F
:10080000002801DD0138FDD1704700BF3000001025
:100810000146002208B58A4200DB08BD4FF47A7019
:10082000FFF7E8FF0132F6E7024B00211B689869E9
:10083000704700BF2800001001280CD003D3022805
:1008400011D000207047094B1A6843F6FC73D0584A
:1008500000F001007047054B1A6843F6FC73D0584E
:10086000C0F340007047024BF6E700BF10000010D5
:100870000C000010012811D002D3022817D07047B5
:100880000E4B1A6843F6FC7321B1D15841F00101B7
:10089000D1507047D15821F00101F9E7074B1A6890
:1008A00043F6FC7329B1D15841F00201F0E7044B43
:1008B000F5E7D15821F00201EAE700BF100000106F
:1008C0000C000010024B1B68586900F001007047D3
:1008D0001C000010024B1B685869C0F340107047A1
:1008E0001C00001008B510B9FFF7ECFFFBE7024B46
:1008F0001B681868C0B208BD1C00001008B510B90C
:10090000FFF7E8FFFBE7024B1B68196008BD00BF5B
:100910001C0000102DE9F041202541EA400C4FF069
:100920003C0E042738214FF024081820354E346837
:1009300025603468656805F0F805282D39D014D88D
:10094000102D03D007D805B3082DF3D1C4F808C083
:100950002760A061EDE7182D1ED0202DEAD11423C9
:10096000236028230220A36114E0402D2DD006D857
:10097000302D24D0382DDDD1C4F80080E9E7502D8A
:100980002AD0582D35D0482DE8E71423236028239A
:100990000120A361BDE8F0812BB115780132A5607B
:1009A0002760A161C5E7142222602822A2610020ED
:1009B000F0E7013BF1D114222260A561F7E714238F
:1009C000236028230320A361E4E7012B8ABF27606B
:1009D000C4F818E0A161ACE7A468551C1470326833
:1009E000013B012B8ABF1760C2F818E091612A46CB
:1009F0009FE70BB1A3681370142233681A60282292
:100A00009A61D4E72000001013460A460121FFF73F
:100A100081BF13460A460021FFF77CBF62B67047CC
:100A200072B6704740404940FFF77CFD70470102B5
:080A30000408102040801B3671
:080A38000000000000000000B6
:100A4000000C0C01008004400040044000000050F5
:100A500000000150000002500000035000800040E0
:0C0A60000000004000C0034000E000E087
:00000001FF
