:1000000000200010430000004100000041000000FB
:1000100041000000410000004100000041000000DC
:1000200041000000410000004100000041000000CC
:1000300041000000410000004100000041000000BC
:10004000FEE70B480B490C4A091A05D013780370D8
:10005000013201300139F9DC08480949091A04D094
:100060005B40037001300139FBDC00F0FFFEFEE76E
:100070000000001058040010F00E00006004001092
:10008000600400105013000003463038C0B2092845
:100090000DD9A3F14102052A02D8373BD8B27047E7
:1000A000A3F16102052A01D8573BF7E7FF2070470B
:1000B0002DE9F8438E1C7600F31D23F0070300AFF3
:1000C000ADEB030D804689466C460025002000F00C
:1000D0002DFE0D280FD1002363552078FFF7D4FFA4
:1000E00001466078FFF7D0FF10EB011108D10846F8
:1000F000BD46BDE8F883B542B8BF60550135E5E7B8
:100100004945A8BF494645460334A5EB0803994233
:1001100004F10204EBDD14F8020CFFF7B5FF06460C
:1001200014F8010CFFF7B0FF00EB061005F8010B07
:10013000EBE7092802D83030C0B27047A0F10A03BB
:10014000052B01D83730F7E7FF20704770B506461A
:10015000C1F303100D46FFF7ECFF0146002000F04D
:10016000F1FD05F00F00FFF7E4FF0146002000F06D
:10017000E9FD3A21002000F0E5FD3446A31B9D4235
:1001800005DCBDE870400D21002000F0DBBD2078CB
:100190000009FFF7CEFF0146002000F0D3FD14F860
:1001A000010B00F00F00FFF7C4FF0146002000F034
:1001B000C9FDE3E710F0800F4FEA400018BF80F060
:1001C0001B00C0B2704702460723002010B5FFF79E
:1001D000F1FF41FA03F4E40744BF5040C0B213F109
:1001E000FF33F4D210BD70B50146FFF7ECFF0646B1
:1001F000FFF7E9FF314605463046FFF7E4FF0146C9
:1002000004462846FFF7DFFF05462046FFF7DBFFE1
:1002100001462846FFF7D7FF0146FFF7D4FF014606
:10022000FFF7D1FF044601462846FFF7CCFF014601
:100230002046FFF7C8FFBDE870400146FFF7C3BF87
:1002400008B5FFF7D0FF80F0630383EAD01383EA99
:10025000901383EA501383EA101383EA400383EA7E
:10026000800383EAC00383EA0010C0B208BD2DE911
:10027000F84F0446477B0D463846FFF7E1FF2178EB
:10028000A67B4D4045405FFA85F984F800903046E2
:10029000FFF7D6FF6278E57B42405FFA82FB84F885
:1002A00001B02846FFF7CCFFA37894F80C804340B8
:1002B0005FFA83FA404684F802A0FFF7C1FF94F882
:1002C00003C0217980EA0C0094F807C0C0B2E07046
:1002D00080EA0C0094F808C0627989EA0101217172
:1002E00081EA0C0194F809C0A3798BEA02026271D9
:1002F00082EA0C0294F80AC08AEA0303A37183EA33
:100300000C0394F80BC0E07180EA0C006272A372D7
:10031000E07288EA01087A4073406840217284F8EC
:100320000C806273A373E073BDE8F88F0A780378DA
:10033000534003704A784378534043708A788378F7
:1003400053408370CA78C3785340C3700A790379E5
:10035000534003714A794379534043718A798379D1
:1003600053408371CA79C3795340C3710A7A037ABF
:10037000534003724A7A437A534043728A7A837AAB
:1003800053408372CA7AC37A5340C3720A7B037B99
:10039000534003734A7B437B534043738A7B837B85
:1003A00053408373CA7BC37B5340C37370477FB58D
:1003B0000E46044600F05CFC00F05EFD00F058FCC8
:1003C000054600F061FD434203F00F0300F00F000B
:1003D00058BF5842305C684300F04EFD0025102D98
:1003E00061D19DF80050605DFFF72AFF60559DF8D0
:1003F0000150605DFFF724FF60559DF80250605D7D
:10040000FFF71EFF60559DF80350605DFFF718FF72
:1004100060559DF80450605DFFF712FF60559DF830
:100420000550605DFFF70CFF60559DF80650605D5C
:10043000FFF706FF60559DF80750605DFFF700FF6E
:1004400060559DF80850605DFFF7FAFE60559DF815
:100450000950605DFFF7F4FE60559DF80A50605D3D
:10046000FFF7EEFE60559DF80B50605DFFF7E8FE6C
:1004700060559DF80C50605DFFF7E2FE60559DF8F9
:100480000D50605DFFF7DCFE60559DF80E50605D1D
:10049000FFF7D6FE60559DF80F50605DFFF7D0FE68
:1004A000605504B070BD00F0EFFC434203F00F0351
:1004B00000F00F0058BF584200239D4203D10DF8B1
:1004C000050001358BE71DF80320824287D00133F8
:1004D000F3E74179427A437B10B544784271447323
:1004E000827A8478417043728179837B84728173CC
:1004F000C478C17982708371C27AC37BC471C172BE
:10050000C273C37010BD2DE9F041017803464278F3
:100510008478C6780846FFF74DFE80461046FFF700
:1005200049FE07462046FFF745FE05463046FFF7E1
:1005300041FE81EA020C624072406140714088EAEB
:10054000020286EA0C0684EA0C047A404F406F40AF
:10055000197988EA04047540454060401A705F705C
:100560009D70D87008469C79DE795A79FFF722FE93
:1005700080461046FFF71EFE07462046FFF71AFE8C
:1005800005463046FFF716FE81EA020C62407240D3
:100590006140714088EA020286EA0C0684EA0C0493
:1005A0007A404F406F40197A88EA0404754045400C
:1005B00060401A715F719D71D87108469C7ADE7A2D
:1005C0005A7AFFF7F7FD80461046FFF7F3FD07461E
:1005D0002046FFF7EFFD05463046FFF7EBFD81EAC9
:1005E000020C624072406140714088EA020286EA71
:1005F0000C0684EA0C047A404F406F40197B88EA6D
:1006000004047540454060401A725F729D72D87252
:1006100008469C7BDE7B5A7BFFF7CCFD804610466C
:10062000FFF7C8FD07462046FFF7C4FD05463046E4
:10063000FFF7C0FD81EA020C6240724061407140E8
:1006400088EA02027A4086EA0C064F4084EA0C04EB
:100650006F4088EA04047540454060401A735F7338
:100660009D73D873BDE8F08170472DE9F04F8BB0D2
:1006700014461D460E46074600F0FAFA00F0FCFB51
:1006800000F0F6FA804600F0FFFB434203F00F0350
:1006900000F00F0058BF5842285C08FB00F000F043
:1006A000EBFB31463B4606F1100251F8040B914238
:1006B00043F8040BF9D106AB2246984604F1100624
:1006C0001C4610685168083203C4B2422346F7D171
:1006D0004FF00009804A03AB10685168128903C3C8
:1006E000414638461A804C46FFF720FE0C260DF195
:1006F0000C0A4FF0000B1AE02F2C16D8294628467A
:10070000FFF755FE00F0B4FA019000F0BDFB424245
:1007100002F00F0200F00F0058BF5042285C019B0E
:100720000134584300F0A8FBE4B20BF1010B00F0D8
:10073000ABFB90FBF6F303FB16005845DCDC2946C7
:100740003846FFF734FE4FF0000B00F09DFB90FBA6
:10075000F6F303FB1600584547DC4FF0000B00F0A2
:1007600093FB90FBF6F303FB1600584558DC384624
:10077000FFF7AFFE4FF0000B00F086FB90FBF6F3A7
:1007800003FB1600584566DC3846FFF7BCFE4FF009
:10079000000B00F079FB90FBF6F303FB16005845C5
:1007A00063DC1AF809104046FFF761FD09F1010901
:1007B00041463846FFF7BAFDB9F1090F99D12946EC
:1007C000FFF7F5FD0026C4F13003B34269DC38467B
:1007D000FFF77FFE40463621FFF749FD4146384688
:1007E000FFF7A4FD0BB0BDE8F08F2F2C15D82846DD
:1007F000FFF789FE00F03CFA019000F045FB424211
:1008000002F00F0200F00F0058BF5042285C019B1D
:100810000134584300F030FBE4B20BF1010B94E7D4
:100820002F2C15D82846FFF754FE00F021FA01902E
:1008300000F02AFB424202F00F0200F00F0058BF06
:100840005042285C019B0134584300F015FBE4B290
:100850000BF1010B83E72F2C04D82846FFF753FE3A
:100860000134E4B20BF1010B86E72F2C16D8294690
:100870002846FFF75BFD00F0FBF9019000F004FB58
:10088000424202F00F0200F00F0058BF5042285CB5
:10089000019B0134584300F0EFFAE4B20BF1010B75
:1008A00077E72F2C16D829462846FFF780FD00F061
:1008B000DFF9814600F0E8FA434203F00F0300F04D
:1008C0000F0058BF5842285C013409FB00F000F0CB
:1008D000D3FAE4B2013676E7C40E0000F0B52D4C31
:1008E00093B02068019001A800F056F800284AD083
:1008F0000AAA1646231D1434154618685968083389
:1009000003C5A3422A46F7D1102701216846FFF705
:10091000CFFB012805463AD19DF80040FCB1012CDF
:10092000F3D1102106A8FFF7C3FB10280146ECD134
:100930000EA8FFF7BDFB10280546E6D12146002092
:1009400000F0BCF90EAB324606A902A8FFF78DFEF7
:100950000021084600F0B2F9294602A810E012ACC6
:1009600004F8457D01462046FFF7F0FB2946204666
:100970008DF80370FFF7EAFB294620468DF80370D7
:10098000FFF7E4FBC1E74FF0FF3013B0F0BD0020EC
:10099000FBE700BFCE0E00002DE9F74F0121102725
:1009A0009D4C066823689D4DD3F880205FFA86F839
:1009B00042F48032C3F88020994A884512682E603C
:1009C0009167D167176140F20127C2F8A410C2F8FD
:1009D000A81017635763D3F88020AC4642F020027A
:1009E000C3F88020D3F88020009442F04002C3F87E
:1009F0008020D3F8802042F48052C3F880205A68C7
:100A000022F002025A605A6842F002025A6005D08F
:100A100026D3B8F1020F05D00020DBE041464FF0AD
:100A2000030A00E08A464FF00009C6F3072201924C
:100A3000C6F307460125DDF804E009F1010707FBCD
:100A40000EF4B4FBF5FB05FB1B420AB95E4509D069
:100A50000135B5F5807FF4D1202FB946EAD1DBE727
:100A60000021DCE766009C3EA42E0FD9A6009C3E28
:100A7000A42E40F2B280E6009C3EA42E40F2AF804D
:100A800024019C3CA42C00F2C58003220EF1FF340B
:100A9000132C49EA421200F2A48000241C62D3F80D
:100AA0003842B8F1000F40F0A48044F02004C3F8AD
:100AB0003842C82300BF013BFCD1009B1B6819646E
:100AC000596C41F001015964596C21F001015964DC
:100AD000596C41F001015964596CCC07FCD59A60FE
:100AE000D3F8382222F08002C3F83822DA68D1071E
:100AF000FCD5C3F870A05A6F42F001025A675A6FD2
:100B000022F001025A675A6F42F001025A675A6F87
:100B1000D207FCD59CF802209D67142A6CD80024CB
:100B2000404909680C61404902EB8202096801F5FD
:100B30000044256845F001052560256845F002055B
:100B400025603A4C246804F50044256825F0020528
:100B5000256043F6FC740D5925F001050D510D5922
:100B600025F002050D5105259CF8011004244F4382
:100B7000C3F898702E4B1B68D96841F08001D9608A
:100B80009D62996A41F080019962002159601C6060
:100B9000D96821F08001D960D96841F00301D9609A
:100BA000D96821F00801D960D96821F00401D96021
:100BB000204B1B685A611A6140221A606FF07F4215
:100BC0001D4B1B685A619A61C2780AB31D6100F01F
:100BD00049F9012003B0BDE8F08F012256E7022257
:100BE00054E7AEF10F0EBEF10A0F3FF658AF0224E4
:100BF00054E724F020045AE7282A03D8094901249D
:100C000009688FE7322A8ED806490224096889E7E5
:100C10001C61DCE71046DDE70400001060040010F2
:100C20000800001024000010100000100C0000103C
:100C30001C0000102000001028000010054B9B78BD
:100C40005843032390FBF3F0002801DD0138FDD168
:100C5000704700BF600400100146002208B58A42B8
:100C600000DB08BD4FF47A70FFF7E8FF0132F6E7CA
:100C7000024B00211B689869704700BF28000010D4
:100C800001280CD003D3022811D000207047094B53
:100C90001A6843F6FC73D05800F001007047054B0A
:100CA0001A6843F6FC73D058C0F340007047024BFB
:100CB000F6E700BF100000100C000010012811D052
:100CC00002D3022817D070470E4B1A6843F6FC7304
:100CD00021B1D15841F00101D1507047D15821F0D4
:100CE0000101F9E7074B1A6843F6FC7329B1D158A3
:100CF00041F00201F0E7044BF5E7D15821F0020181
:100D0000EAE700BF100000100C000010024B1B6847
:100D1000586900F0010070471C000010024B1B686E
:100D20005869C0F3401070471C00001008B510B996
:100D3000FFF7ECFFFBE7024B1B681868C0B208BD69
:100D40001C00001008B510B9FFF7E8FFFBE7024BE5
:100D50001B68196008BD00BF1C0000102DE9F041A0
:100D6000202541EA400C4FF03C0E042738214FF07B
:100D700024081820354E346825603468656805F00D
:100D8000F805282D39D014D8102D03D007D805B375
:100D9000082DF3D1C4F808C02760A061EDE7182D35
:100DA0001ED0202DEAD11423236028230220A36122
:100DB00014E0402D2DD006D8302D24D0382DDDD193
:100DC000C4F80080E9E7502D2AD0582D35D0482DA1
:100DD000E8E71423236028230120A361BDE8F08104
:100DE0002BB115780132A5602760A161C5E71422F7
:100DF00022602822A2610020F0E7013BF1D11422F9
:100E00002260A561F7E71423236028230320A36150
:100E1000E4E7012B8ABF2760C4F818E0A161ACE7C2
:100E2000A468551C14703268013B012B8ABF1760FF
:100E3000C2F818E091612A469FE70BB1A3681370CE
:100E4000142233681A6028229A61D4E72000001027
:100E500013460A460121FFF781BF13460A460021C7
:100E6000FFF77CBF62B6704772B67047404049409A
:100E7000FFF734FD704700000022024B1B68C3E9F6
:100E80002A0270472C0000100B4B0C48196830B434
:100E9000D1E92A2300FB02F0094C04FB0300A2FB6A
:100EA0000423541C034443F1000525F00040C1E92C
:100EB0002A4530BC704700BF2C0000102DF451585B
:100EC0002D7F954C01020408102040801B36011034
:100ED0001000D3853346028B6E248662E995AB6899
:080EE0007E2500003000001027
:080EE800000000000000000002
:100EF000000C0C0100800440004004400000005041
:100F0000000001500000025000000350008000402B
:100F10000000004000C0034000E000E0300000108E
:100F2000000000001C03001084030010EC030010FC
:100F300000000000000000000000000000000000B1
:100F400000000000000000000000000000000000A1
:100F50000000000000000000000000000000000091
:100F60000000000000000000000000000000000081
:100F70000000000000000000000000000000000071
:100F80000000000000000000000000000000000061
:100F90000000000000000000000000000000000051
:100FA0000000000000000000000000000000000041
:100FB0000000000000000000000000000000000031
:100FC0000000000000000000010000000000000020
:100FD0000E33CDAB34126DE6ECDE05000B000000E5
:100FE0000000000000000000000000000000000001
:100FF00000000000000000000000000000000000F1
:1010000000000000000000000000000000000000E0
:1010100000000000000000000000000000000000D0
:00000001FF
