:1000000000200010430000004100000041000000FB
:1000100041000000410000004100000041000000DC
:1000200041000000410000004100000041000000CC
:1000300041000000410000004100000041000000BC
:10004000FEE70B480B490C4A091A05D013780370D8
:10005000013201300139F9DC08480949091A04D094
:100060005B40037001300139FBDC00F0ABFAFEE7C6
:10007000000000102C000010E0050000300000100F
:10008000300000101006000010B5184BADF5805D73
:1000900082B0186802AC44F8040C201F00F028F865
:1000A000E8B14FF47A7000F083F90121002000F0EC
:1000B000B1F94FF47A7300BF013BFCD1E258013330
:1000C000B3F57A7FFAD1002303FB03F20133B3F5D2
:1000D0007A7FF9D10021084600F09CF9E1E74FF062
:1000E000FF300DF5805D02B010BD00BFCE050000F1
:1000F0002DE9F74F012110279D4C066823689D4D7F
:10010000D3F880205FFA86F842F48032C3F880206A
:10011000994A884512682E609167D167176140F24D
:100120000127C2F8A410C2F8A81017635763D3F8C8
:100130008020AC4642F02002C3F88020D3F8802013
:10014000009442F04002C3F88020D3F8802042F4AB
:100150008052C3F880205A6822F002025A605A681E
:1001600042F002025A6005D026D3B8F1020F05D042
:100170000020DBE041464FF0030A00E08A464FF0E2
:100180000009C6F307220192C6F307460125DDF8F0
:1001900004E009F1010707FB0EF4B4FBF5FB05FBD6
:1001A0001B420AB95E4509D00135B5F5807FF4D10F
:1001B000202FB946EAD1DBE70021DCE766009C3E50
:1001C000A42E0FD9A6009C3EA42E40F2B280E600D9
:1001D0009C3EA42E40F2AF8024019C3CA42C00F253
:1001E000C58003220EF1FF34132C49EA421200F2BB
:1001F000A48000241C62D3F83842B8F1000F40F00C
:10020000A48044F02004C3F83842C82300BF013B57
:10021000FCD1009B1B681964596C41F001015964C1
:10022000596C21F001015964596C41F00101596484
:10023000596CCC07FCD59A60D3F8382222F08002A2
:10024000C3F83822DA68D107FCD5C3F870A05A6F1A
:1002500042F001025A675A6F22F001025A675A6F40
:1002600042F001025A675A6FD207FCD59CF802206F
:100270009D67142A6CD80024404909680C614049E4
:1002800002EB8202096801F50044256845F001058A
:100290002560256845F0020525603A4C246804F580
:1002A0000044256825F00205256043F6FC740D59CD
:1002B00025F001050D510D5925F002050D510525BB
:1002C0009CF8011004244F43C3F898702E4B1B6810
:1002D000D96841F08001D9609D62996A41F080013E
:1002E0009962002159601C60D96821F08001D960B1
:1002F000D96841F00301D960D96821F00801D960BB
:10030000D96821F00401D960204B1B685A611A6139
:1003100040221A606FF07F421D4B1B685A619A6140
:10032000C2780AB31D6100F049F9012003B0BDE8AD
:10033000F08F012256E7022254E7AEF10F0EBEF114
:100340000A0F3FF658AF022454E724F020045AE77E
:10035000282A03D80949012409688FE7322A8ED850
:1003600006490224096889E71C61DCE71046DDE7DD
:1003700004000010300000100800001024000010DD
:10038000100000100C0000101C00001020000010D5
:1003900028000010054B9B785843032390FBF3F093
:1003A000002801DD0138FDD1704700BF300000108A
:1003B0000146002208B58A4200DB08BD4FF47A707E
:1003C000FFF7E8FF0132F6E7024B00211B6898694E
:1003D000704700BF2800001001280CD003D302286A
:1003E00011D000207047094B1A6843F6FC73D058AF
:1003F00000F001007047054B1A6843F6FC73D058B3
:10040000C0F340007047024BF6E700BF1000001039
:100410000C000010012811D002D3022817D0704719
:100420000E4B1A6843F6FC7321B1D15841F001011B
:10043000D1507047D15821F00101F9E7074B1A68F4
:1004400043F6FC7329B1D15841F00201F0E7044BA7
:10045000F5E7D15821F00201EAE700BF10000010D3
:100460000C000010024B1B68586900F00100704737
:100470001C000010024B1B685869C0F34010704705
:100480001C00001008B510B9FFF7ECFFFBE7024BAA
:100490001B681868C0B208BD1C00001008B510B970
:1004A000FFF7E8FFFBE7024B1B68196008BD00BFC0
:1004B0001C0000102DE9F041202541EA400C4FF0CE
:1004C0003C0E042738214FF024081820354E34689C
:1004D00025603468656805F0F805282D39D014D8F2
:1004E000102D03D007D805B3082DF3D1C4F808C0E8
:1004F0002760A061EDE7182D1ED0202DEAD114232E
:10050000236028230220A36114E0402D2DD006D8BB
:10051000302D24D0382DDDD1C4F80080E9E7502DEE
:100520002AD0582D35D0482DE8E7142323602823FE
:100530000120A361BDE8F0812BB115780132A560DF
:100540002760A161C5E7142222602822A261002051
:10055000F0E7013BF1D114222260A561F7E71423F3
:10056000236028230320A361E4E7012B8ABF2760CF
:10057000C4F818E0A161ACE7A468551C1470326897
:10058000013B012B8ABF1760C2F818E091612A462F
:100590009FE70BB1A3681370142233681A602822F6
:1005A0009A61D4E72000001013460A460121FFF7A4
:1005B00081BF13460A460021FFF77CBF62B6704731
:1005C00072B6704740404940FFF75EFD704701102A
:0405D0001000000017
:0C05D4000000000000000000000000001B
:1005E000000C0C010080044000400440000000505A
:1005F0000000015000000250000003500080004045
:0C0600000000004000C0034000E000E0EB
:00000001FF
